:100000000C943E000C9459000C9459000C94590027
:100010000C9459000C9459000C9459000C945900FC
:100020000C9459000C9459000C9459000C9419022A
:100030000C9459000C94C3020C9459000C94590070
:100040000C9459000C9459000C9459000C945900CC
:100050000C945900CF13A213FE1330149A14B01449
:10006000EB141915E8165015C3147215CC14871526
:10007000C315241600164D167C16B61611241FBE85
:10008000CFE5D8E0DEBFCDBF17E0A0E6B0E0E8E105
:10009000F1E402C005900D92A432B107D9F717E040
:1000A000A4E2B7E001C01D92A63EB107E1F70C94AF
:1000B0006B030C940000CF93DF93EC0140E650E01B
:1000C00060E0862F0E944A034FE650E061E080E046
:1000D0000E944A038E8199278130910519F0029779
:1000E00021F00FC04EE750E002C049E850E060E068
:1000F00083E00E944A0348E950E061E080E00E940A
:100100004A038E81992782309105A9F083309105A9
:100110001CF4019721F02DC00397E1F02AC044EAB6
:1001200050E060E0862F0E944A03CE010E945B00EF
:100130008130F9F00CC043EB50E060E0862F0E9464
:100140004A0340EC50E061E080E00E944A038E8167
:100150008F5F0EC043EB50E060E0862F0E944A03A1
:100160004FEC50E061E080E00E944A038E818150B4
:100170008E8381E090E0DF91CF9108954CED50E0C7
:1001800060E0862F0E944A034BEE50E061E089E078
:100190000E944A0381E090E008950895089508952B
:1001A00080EC87B980B780BF83EC86B908951F9330
:1001B000CF93DF93EC0130E02A851D8D349B34C052
:1001C000349A2F5F213081F1FC01E20FF11D31974C
:1001D00084B195B180832A3038F1112331F4613034
:1001E00011F439E006C030E104C0113111F0312FB3
:1001F0003E5F306C37B96AE0CE010E940106992754
:10020000FE01E10FF11D9C01369527953695279546
:10021000238781FF03C0822F8F5F83871F5F123187
:1002200009F410E01D8F1A86DF91CF911F91089578
:10023000C29887B3856087BB88B3806F88BB87B35C
:10024000806F87BB0895C29A64E170E080E090E01F
:100250000E94CF01C29800000000000000000000D2
:100260000000089598B39F7098BB982F907F88B333
:10027000892B88BB0E94230108950F931F93CF936E
:10028000DF93182F062F60E971E080E090E00E9474
:10029000CF01C12FDD27C0FF02C0C09A01C0C098A6
:1002A000802F0E943201C1FD05C0802F8295807F82
:1002B0000E943201DF91CF911F910F910895E19932
:1002C000FECF07B600FCFDCFF8949FBB8EBB6DBB85
:1002D000E29AE19A78940895E199FECF07B600FC7E
:1002E000FDCFF8949FBB8EBBE09A8DB3789499278D
:1002F0000895FC0191E023B3237C8385281749F4FA
:100300008485890F8487843010F0148605C090E0BE
:1003100003C0238714869485892F992708950F9306
:100320001F93CF93DF93EC01062F1A85909A0E94BA
:100330007901882379F12B858D853E854F85922F14
:100340009095982331F01A3020F4FE01E10FF11D51
:100350009083233C91F0281781F43A3010F43F5FEA
:100360000DC03A3059F4FE01E10FF11D8081821772
:1003700029F4822F8061808301C030E0992321F02D
:10038000013011F442E0909891111F5F1A872D8778
:100390003E874F87DF91CF911F910F910895615054
:1003A000710981099109D8F708958AE091E09DBD0E
:1003B0008CBD9BBD8ABD99BD88BD8FB583608FBD47
:1003C0008EB588618EBD8EB58EBD08959C01845614
:1003D0009040873A910528F488B7846088BF3DBD76
:1003E0002CBD0895FC01758364836115710519F4B2
:1003F0008AE091E014C0828193818617970728F4E0
:100400008AE0489FC00111240AC06817790748F4A0
:100410008AE0489FC0011124909581959F4F0E94CA
:10042000E601089586E082BF83E083BF81E089BF53
:1004300008951F920F920FB60F9211242F938F934E
:100440009F9386E082BF8091B807882329F080912E
:10045000B80781508093B8078091EC00882321F081
:1004600081508093EC0066C022E02093EC008091E4
:10047000B70781608093B7078091ED00882321F052
:1004800081508093ED0056C08AE08093ED0080910A
:10049000B70782608093B7078091EE00882321F030
:1004A00081508093EE0046C095E09093EE008091DD
:1004B000B70784608093B7078091EF00882321F00D
:1004C00081508093EF0036C09093EF008091B70782
:1004D00088608093B7078091F000882321F08150D5
:1004E0008093F00027C02093F0008091B7078061CF
:1004F0008093B7078091F100882321F08150809389
:10050000F10018C083E08093F1008091B70780620A
:100510008093B7078091F200882321F08150809367
:10052000F20008C084E18093F2008091B7078064F4
:100530008093B7079F918F912F910F900FBE0F90CF
:100540001F9018958093B8078091B8078823E1F72A
:10055000089580E68BB980E98AB98EE880BD089558
:10056000882349F010BC81E289B9589A8AB1806920
:100570008AB95398089580BD81E289B98AB18F768E
:100580008AB9539A08951F920F920FB60F921124B1
:100590008F938AB18CB1589A8AB180698AB98F9148
:1005A0000F900FBE0F901F901895FC015898579808
:1005B0004093B8075F9B04C08CB18193615039F0C0
:1005C0008091B8078823B1F780E090E008955498AF
:1005D00081E090E00895FC014093B8075D9BFECF59
:1005E0005E9A81918CB98091B807882319F480E0D4
:1005F00090E00895615091F75E9BFECF81E090E01E
:10060000089588EC0E94A20268E280E00E943D0109
:1006100060E971E080E090E00E94CF0160E971E064
:1006200080E090E00E94CF0168E280E00E943D01FE
:1006300060E971E080E090E00E94CF016CE080E032
:100640000E943D0160E971E080E090E00E94CF01EE
:1006500061E080E00E943D0182E00E94A20266E02B
:1006600080E00E943D0182E00E94A202969A8E9A4A
:100670000895962F662331F48058682F892F0E94A1
:100680003D010895613029F48054682F80E00E9474
:100690003D0108951F93CF93DF93EA0110E00E947C
:1006A00039038881882359F08991682F81E00E945D
:1006B0003D011F5F103119F088818823A9F7DF9170
:1006C000CF911F91089561E080E00E943D0182E09A
:1006D0000E94A2020895CFE5D8E0DEBFCDBF42EC74
:1006E00060E084E297E00E9471060E9453060E9437
:1006F00001030E94F3168091B70780FF0EC080911E
:10070000B7078E7F8093B707809126078695817003
:10071000682F89E897E00E94D7008091B70781FF92
:1007200011C08091B7078D7F8093B707809127070D
:1007300080FF08C0809125078170682F87EA97E0C5
:100740000E948F018091B70782FF0CC08091B7078C
:100750008B7F8093B70741E06AE070E083E897E021
:100760000E94F2018091B70783FF09C08091B7070B
:10077000877F8093B70784E297E00E94F416809108
:10078000B70784FF09C08091B7078F7E8093B707B2
:1007900084E297E00E94A6058091B70785FF05C017
:1007A0008091B7078F7D8093B7078091B70785FF4A
:1007B000A2CF8091B7078F7D8093B7079CCF0F930F
:1007C0001F93FC019185892F817C818717824423A7
:1007D00019F0468391789187662389F06583818536
:1007E00080648F7781878F0103571F4FD8016C91E9
:1007F000CF018D579F4F0E942E06F80180831F91D5
:100800000F910895EF92FF920F931F93CF93DF9371
:10081000EC018D81813009F027C1298527FF3AC07D
:10082000922F9F7B998783E8E82EF12CEC0EFD1E1A
:10083000F7014081413029F462E0CE010E94DF03DC
:100840001AC0403451F421FD03C08E818F5F0BC06C
:1008500081E08E832D7B29870EC0423051F48E813A
:10086000813019F081508E8306C08CE08E839260B7
:1008700001C0906499878E0103571F4FF801608172
:10088000C7010E944206F8018083898586FF02C065
:100890008F7BE9C08985806C89878E819927863016
:1008A000910509F482C087309105ACF4833091053D
:1008B00009F44BC08430910534F48130910531F155
:1008C000029799F1D1C08430910509F44EC0059783
:1008D00009F45BC0C9C08930910509F492C08A301F
:1008E000910544F48730910509F46FC0089709F425
:1008F0007AC0BAC08B30910509F49FC08B30910546
:100900000CF48DC00C9709F4A7C0AEC043EF50E0C3
:1009100060E0862F0E944A0340E051E061E080E001
:100920000E944A031A8681E095C043EF50E060E0E0
:10093000862F0E944A034DE051E061E080E00E9472
:100940004A0381E08A8782E085C043EF50E060E09F
:10095000862F0E944A034AE151E061E080E00E9454
:100960004A0382E08A8783E075C043EF50E060E08D
:10097000862F0E944A0347E251E061E080E00E9436
:100980004A0383E08A8784E065C043EF50E060E07B
:10099000862F0E944A0344E351E061E080E00E9418
:1009A0004A0384E08A8785E055C043EF50E060E069
:1009B000862F0E944A0341E451E061E080E00E94FA
:1009C0004A0385E08A8786E045C043EF50E060E057
:1009D000862F0E944A034CE451E061E080E00E94CF
:1009E0004A0387E037C049E551E060E0862F0E9466
:1009F0004A0349E651E061E080E00E944A0388E052
:100A000029C049E551E060E0862F0E944A034AE789
:100A100051E061E080E00E944A0389E01BC049E5A3
:100A200051E060E0862F0E944A0349E851E061E00E
:100A300080E00E944A038AE00DC049E551E060E091
:100A4000862F0E944A034AE951E061E080E00E945B
:100A50004A038BE08C8308C0CE010E94511B8CE0BE
:100A60008C83898582608987DF91CF911F910F9157
:100A7000FF90EF9008950F931F93CF93DF93EC01B6
:100A80008D81882309F05DC093E098878E0103571C
:100A90001F4FD8018C918823B1F0898587FF13C03F
:100AA000FE01ED57FF4F8081803919F482E08E837B
:100AB00003C0813909F49E83D8016C91CF010E9453
:100AC0004206F80180838E81992781309105D9F003
:100AD000823091051CF4892B39F02EC082309105AB
:100AE00021F1039729F128C04BEA51E060E0862FFD
:100AF0000E944A0348EB51E061E080E00E944A0313
:100B00008E818F5F17C047EC51E060E0862F0E9416
:100B10004A0343ED51E061E080E00E944A038FEF19
:100B20008E838985806889870CC081E0888701C0B1
:100B300018868FEF8E8305C041E0642FCE010E949E
:100B4000DF03DF91CF911F910F910895FC01808504
:100B5000815080878F3F09F041C0E357FF4F80816C
:100B6000ED58F040882319F4818586FD37C08581D2
:100B700099278130910569F0823091051CF4892B09
:100B800021F00895029749F00895CF010E943B0596
:100B90000895CF010E94020408958481992783302B
:100BA0009105A9F08430910534F48130910539F034
:100BB000029749F008950597059780F40CC0CF017E
:100BC0000E9491060895CF010E94580D0895CF010B
:100BD0000E947C110895CF010E94511B089561501D
:100BE00079F040E04617D8F7FC01308121812317C6
:100BF00010F4208331834F5F31964617B0F3EFCF67
:100C00000895EF92FF920F931F93CF93DF93EC0120
:100C1000162F00E0EE24FF240E94EF0589818883CF
:100C2000612F7727FE01E60FF71F329780813296FA
:100C30008293011738F4FE018191E80EF11C0F5FD9
:100C40000117D0F3C7010E944320CB019927DF9100
:100C5000CF911F910F91FF90EF900895662331F08F
:100C6000FC01E60FF11D10826150F8CF862F992705
:100C70000895262FFC01E60FF11D40832F5F822F80
:100C800099270895FC0190E0615011F4608308C039
:100C9000961730F48181808311829F5F3196F8CF5F
:100CA000862F99270895909A889A8C9A85B3836C99
:100CB00085BB84B38C7384BB0E9412020E9418010E
:100CC0000E94D0008FB780688FBF089520E024175E
:100CD00038F4DC01FB0181918D932F5F2417D8F349
:100CE000089520E0241728F4FC0161932F5F241756
:100CF000E0F30895FC016A3028F480E38083682BD8
:100D000061830DC0643648F481E38083862F6AE0F6
:100D10000E9437208063818302C0E0E0F0E0CF01D1
:100D200008956F927F928F929F92AF92BF92CF92CF
:100D3000DF92EF92FF920F931F93CF93DF93CDB784
:100D4000DEB7A2970FB6F894DEBF0FBECDBF5C0131
:100D50008091D901898390E1B2E06B2E712C6C0EE9
:100D60007D1ED301E92F1D92EA95E9F78A8BFE01DA
:100D7000739611929A95E9F7F5018581992782304A
:100D8000910521F0039709F426C27DC6F5018185FE
:100D900087FF0CC068E0C5010E94E81AF501918543
:100DA00096FF04C08781882309F4A3C2F5018781D7
:100DB0009185882311F09F7B02C09064F501918793
:100DC000F5018185806881878285882321F485E00B
:100DD000AAEEB1E00CC0813021F485E0AFEEB1E0C5
:100DE00006C0823009F04FC685E0A4EFB1E0FE01F5
:100DF00031960D9001928A95E1F7F5016285C50162
:100E00008C960E944E1AF5018681992785309105AE
:100E100009F4C1C08630910594F48230910509F43B
:100E200045C0833091051CF40197C9F02CC683306E
:100E3000910509F462C0049709F486C024C687307E
:100E4000910509F40AC1873091050CF4CBC08830B4
:100E5000910509F42BC1099709F484C114C689EFDF
:100E600091E09F938F9381E092E09F938F93CE01C7
:100E700005969F938F930E94FE1CAE014F5F5F4FBC
:100E800060E0862F0E944A03AE014F5F5F4F8BE008
:100E900026E032E0DA01F90101900D928A95E1F73E
:100EA00061E080E00E944A0381E0FDC089EF91E0AB
:100EB0009F938F9381E092E09F938F93CE0105964D
:100EC0009F938F930E94FE1CAE014F5F5F4F60E0C7
:100ED000862F0E944A03AE014F5F5F4F85E021E1FC
:100EE00032E0DA01F90101900D928A95E1F761E0B3
:100EF00080E00E944A0382E0D6C086E192E09F93A0
:100F00008F9381E092E09F938F93CE0105969F93FC
:100F10008F930E94FE1CAE014F5F5F4F60E0862FF3
:100F20000E944A03AE014E5E5F4FBE016F5F7F4F6E
:100F3000C5010E94F018AE014F5F5F4F61E080E095
:100F40000E944A0383E0AFC082E292E09F938F93B6
:100F500081E092E09F938F93CE0105969F938F93AC
:100F60000E94FE1CAE014F5F5F4F60E0862F0E9423
:100F70004A03AE014E5E5F4FBE016F5F7F4FC501FA
:100F80000E94CD17AE014F5F5F4F61E080E00E948D
:100F90004A0384E088C089E292E09F938F9381E0C6
:100FA00092E09F938F93CE0105969F938F930E941B
:100FB000FE1CAE014F5F5F4F60E0862F0E944A0328
:100FC000AE014E5E5F4FBE016F5F7F4FC5010E9455
:100FD000CD17AE014F5F5F4F61E080E00E944A0392
:100FE00085E061C082E392E09F938F9387E392E074
:100FF0009F938F93CE0105969F938F930E94FE1C23
:101000008E010E5E1F4F45E0B801C5010E9484139A
:101010009F938F938BE392E09F938F93CE010A96D9
:101020009F938F930E94FE1CAE014F5F5F4F60E065
:10103000862F0E944A03A801BE016F5F7F4FC50142
:101040000E94CD17AE014F5F5F4F61E080E00E94CC
:101050004A0386E0F5018387B9C08FE392E09F934E
:101060008F9381E092E09F938F93CE0105969F939B
:101070008F930E94FE1CAE014F5F5F4F60E0862F92
:101080000E944A03AE014E5E5F4FBE016F5F7F4F0D
:10109000C5010E94F018AE014F5F5F4F61E080E034
:1010A0000E944A0387E0F5018387BFC487E492E08A
:1010B0009F938F938DE492E09F938F93CE0105963B
:1010C0009F938F930E94FE1CF50184899927877056
:1010D000907001969F938F9381E592E09F938F93F9
:1010E000CE010B969F938F930E94FE1C8E010E5E85
:1010F0001F4FA801BE016F5F7F4FC5010E94C1193C
:10110000AE014F5F5F4F60E0862F0E944A03F501FA
:1011100084892DB73EB7245F3F4F0FB6F8943EBF8A
:101120000FBE2DBF87FF02C048E001C047E0B801F5
:10113000C5010E948413BC01CE0101960E94F71CD8
:10114000A801BE016F5F7F4FC5010E94C119AE01AA
:101150004F5F5F4F61E080E00E944A0388E0F50145
:10116000838791C485E592E09F938F938DE592E00C
:101170009F938F93CE0105969F938F930E94FE1CA1
:10118000AE014F5F5F4F60E0862F0E944A0344E04C
:10119000BE016E5E7F4FC5010E9484139F938F93A3
:1011A00081E692E09F938F938E010F5F1F4F1F93F5
:1011B0000F930E94FE1CA80161E080E00E944A0398
:1011C00089E0F50183878185826081872DB73EB7ED
:1011D000245F3F4F2EC4F501818587FF8DC0982F76
:1011E0009F7B9187A3E8EA2EF12CEA0CFB1CD70128
:1011F0008C9187FF1BC0E95AFF4F8081813019F421
:1012000088E0808306C0F501438562E0C5010E9445
:10121000DF03F5019681892F8C50823018F481E02C
:10122000868319C09E3009F047C02EC080FF06C0DB
:10123000F5018681883009F048C01BC0803441F533
:10124000F5018681893011F48AE00BC0F501278110
:10125000222319F481E087833BC0813021F48AE0A6
:10126000F501868327C08A3041F4F50183858830F3
:1012700011F089E00BC08BE0F3CF8B3031F52430D7
:1012800018F42F5FF5010EC089E0F501868320C0B8
:101290008230D9F4F50123858681213091F48A309A
:1012A00019F42683278314C0813031F4F501878136
:1012B000813011F417820CC0F5018185806481872B
:1012C00007C0893011F4223019F49064F501918738
:1012D000850103571F4FD8016C91C7010E94420638
:1012E000F8018083F501918596FF06C086818930DB
:1012F00019F09F7B9187C7C3850103571F4FD80102
:101300006C91C5018D579F4F0E942E06F801808376
:10131000F5018185806C81878681992787309105C9
:1013200009F4F5C088309105B4F48330910509F4CF
:10133000EBC0843091053CF48130910539F102977E
:1013400009F4DFC0A0C38530910509F4A0C0069759
:101350000CF0A0C099C08B30910509F4ACC28C3060
:10136000910544F48930910509F4D4C00A970CF032
:1013700015C293C08D30910509F432C38D309105AB
:101380000CF416C30E9709F45AC37DC3F501E78028
:101390006E010894C11CD11C8E010E5E1F4FEE2001
:1013A000F1F54EE0B801C5010E9484139F938F931D
:1013B00086E692E09F938F93DF92CF920E94FE1C6D
:1013C000A6016E2D8E2D0E944A0341E1B801C50190
:1013D0000E9484139F938F938DE692E09F938F9347
:1013E000DF92CF920E94FE1C45E0B801C5010E9429
:1013F00084139F938F938DE592E09F938F93CE01FB
:1014000009969F938F930E94FE1CA60161E08E2D8A
:101410000E944A032DB73EB72E5E3F4F0AC34FE0EE
:10142000B801C5010E9484139F938F9385E792E0D2
:101430009F938F93DF92CF920E94FE1C40E1B801F0
:10144000C5010E948413BC01CE0141960E94F71C85
:10145000A60160E0862F0E944A0344E1B801C5015D
:101460000E948413BC01C6010E94F71CA60161E022
:1014700080E00E944A038DB79EB706960FB6F89497
:101480009EBF0FBE8DBFFFC288E0F501868388E056
:10149000F501868388E0F5018683F50192898389C9
:1014A000989FC00111249F938F93C5010E94981AA1
:1014B00099279F938F938CE792E09F938F938E0150
:1014C0000F5F1F4F1F930F930E94FE1CA80160E047
:1014D000862F0E944A0380E1E1E9F2E0D801019001
:1014E0000D928A95E1F7A80161E080E00E944A032D
:1014F000EDB7FEB738960FB6F894FEBF0FBEEDBF3E
:10150000C2C289E0F501868389E0F501868389E01E
:10151000F5018683F501818585FD37C027E530E03B
:10152000A20EB31ED5018C91E9EAFFEFAE0EBF1EED
:101530008430D9F0F5018285882321F485E0AAEE74
:10154000B1E01CC06E010894C11CD11C813021F493
:1015500085E0EFEEF1E003C085E0E4EFF1E0D601D5
:1015600001900D928A95E1F722C0F50183858230C2
:10157000F1F08930E1F085E0A1EAB2E0FE013196B8
:101580000D9001928A95E1F712C0F5019289838945
:10159000989F802D1124482FBE016E5E7F4FC5019C
:1015A0000E948413BC01CE0103960E94F71CF50132
:1015B0009185892F82958695877080958170829517
:1015C000880F807E9F7D982B9187838575E0C72E3D
:1015D000D12CCC0EDD1E8E010E5E1F4F8930C9F45A
:1015E00046E0B801C5010E9484139F938F9386EA59
:1015F00092E09F938F93DF92CF920E94FE1C2DB7B3
:101600003EB72A5F3F4F0FB6F8943EBF0FBE2DBFC7
:1016100009C041E0B801C5010E948413BC01C601A4
:101620000E94F71C62E1E62EF12CEC0EFD1E45E057
:10163000B701C5010E9484139F938F9386EA92E0BD
:101640009F938F935AE0C52ED12CCC0EDD1EDF92D6
:10165000CF920E94FE1CAE014F5F5F4F60E0862F6D
:101660000E944A03F50123858DB79EB706960FB6F3
:10167000F8949EBF0FBE8DBF223029F481E495E718
:10168000A4E7B0E032C0233029F482E491E4ACE472
:10169000B0E02BC0243029F483E498E4A7E4B0E060
:1016A00024C0253029F486E491E4A3E5B0E01DC010
:1016B000273029F483E594E5AFE4B0E016C0263086
:1016C00029F484E499E4A3E5B0E00FC0283089F45C
:1016D000F501848987FF05C084E49EE3A3E4B0E0BC
:1016E00004C083E49EE3A4E4B0E089839A83AB83DF
:1016F000BC838E010C5F1F4F293059F58DE49FE6A6
:10170000AEE6B0E089839A83AB83BC83F501EB5AE4
:10171000FF4F808164E60E943720892F99279F938D
:101720008F9380810E94372099279F938F938AEA15
:1017300092E09F938F931F930F930E94FE1C2DB7EF
:101740003EB7285F3F4F0FB6F8943EBF0FBE2DBF88
:1017500009C04BE0B701C5010E948413BC01C80158
:101760000E94F71C4DE0BE016E5E7F4FC5010E94D6
:1017700084139F938F938BE392E09F938F93DF92D9
:10178000CF920E94FE1CAE014F5F5F4F61E080E090
:101790000E944A03F50181858F7B46C142E1842E78
:1017A000912C8C0E9D1E43E1B401C5010E9484134F
:1017B000BC01C3010E94F71CF501878136E0D32EDE
:1017C0008D9DC001112401969F938F9323EBE22EF0
:1017D00022E0F22EFF92EF928E010F5F1F4F1F93B8
:1017E0000F930E94FE1CA80160E0862F0E944A030E
:1017F00043E1B401C5010E948413BC01C3010E94EE
:10180000F71CF50187818D9DC001112404969F93DB
:101810008F93FF92EF921F930F930E94FE1CA801DB
:1018200061E080E00E944A03F50183852DB73EB751
:10183000245F3F4F0FB6F8943EBF0FBE2DBF8130DF
:1018400021F5818585FD09C041E1B401C5010E94F2
:10185000A61A882361F08CE008C042E1B401C501FA
:101860000E94A61A882319F08DE0F5018683F50100
:101870008185982F929596959770909591709295F5
:10188000990F907E8F75892BFDC0823009F0FBC0C7
:1018900027E530E0A20EB31ED5018C91E9EAFFEFF7
:1018A000AE0EBF1E8C3009F0EEC08EE0F5018683CF
:1018B00081858F77E7C0F5018781992701969F93EE
:1018C0008F9397EBE92E92E0F92EFF92EF924E0163
:1018D0000894811C911C9F928F920E94FE1CF5011E
:1018E00084892DB73EB72A5F3F4F0FB6F8943EBFAD
:1018F0000FBE2DBFDE01139687FF04C085E0E2E333
:10190000F2E003C085E0EBEBF2E001900D928A95E6
:10191000E1F782E1C82ED12CCC0EDD1E42E1B601EA
:10192000C5010E9484138E01095F1F4FBC01C801CD
:101930000E94F71CAE014F5F5F4F60E0862F0E9450
:101940004A03F5018781992701969F938F93FF9210
:10195000EF929F928F920E94FE1CF50184892DB711
:101960003EB72A5F3F4F0FB6F8943EBF0FBE2DBF64
:10197000DE01139687FF04C085E0EBEBF2E003C0C5
:1019800085E0E2E3F2E001900D928A95E1F742E111
:10199000B601C5010E948413BC01C8010E94F71C56
:1019A000AE014F5F5F4F61E080E00E944A036BC071
:1019B000CE0142969F938F9380EC92E09F938F93FA
:1019C0008E010F5F1F4F1F930F930E94FE1CA801F3
:1019D00060E0862F0E944A038FE0E8ECF2E017C037
:1019E000CE0142969F938F9380EC92E09F938F93CA
:1019F0008E010F5F1F4F1F930F930E94FE1CA801C3
:101A000060E0862F0E944A038CE0E7EDF2E0D80107
:101A100001900D928A95E1F7A80161E080E00E94B3
:101A20004A03F5018185806881872DB73EB72A5F1B
:101A30003F4F0FB6F8943EBF0FBE2DBF24C08E019E
:101A40000F5F1F4F81E1E3EEF2E0D80101900D92AC
:101A50008A95E1F7A80160E0862F0E944A0344E1DD
:101A6000BE016E5E7F4FC5010E948413BC01C80198
:101A70000E94F71CA80161E080E00E944A03F50182
:101A8000818582688187A2960FB6F894DEBF0FBE6B
:101A9000CDBFDF91CF911F910F91FF90EF90DF901D
:101AA000CF90BF90AF909F908F907F906F90089550
:101AB0008F929F92AF92BF92CF92DF92EF92FF925E
:101AC0000F931F93CF93DF93CDB7DEB7A2970FB6D7
:101AD000F894DEBF0FBECDBF6C018091F402898304
:101AE00090E1FE013296292F11922A95E9F78A8B0F
:101AF000FE01739611929A95E9F7F601858199276F
:101B00008230910521F0039709F4FBC1E2C3F6018D
:101B1000818587FF0CC065E0C6010E94E81AF601C6
:101B2000918596FF04C08781882309F452C2F6018B
:101B300087819185882311F09F7B02C09064F60114
:101B40009187F6018185806881878285833021F4C1
:101B500085E0A5E0B3E006C0843009F0BAC385E0B3
:101B6000AAE0B3E0FE0131960D9001928A95E1F76B
:101B7000F6016285C6018C960E944E1AF601868196
:101B800099278330910509F486C0843091053CF48F
:101B90008130910561F0029709F440C09AC3843006
:101BA000910509F4F1C0059709F426C192C38FE0AD
:101BB00093E09F938F935AE1E52E53E0F52EFF9229
:101BC000EF928E010B5F1F4F1F930F930E94FE1C1D
:101BD000AE014F5F5F4F60E0862F0E944A0342E0F4
:101BE000BE016E5E7F4FC6010E948413BC01CE0110
:101BF00001960E94F71C8FE193E09F938F93FF92D1
:101C0000EF921F930F930E94FE1CAE014F5F5F4F38
:101C100061E080E00E944A038AE036C089E293E0F6
:101C20009F938F934AE1E42E43E0F42EFF92EF92CC
:101C30008E010B5F1F4F1F930F930E94FE1CAE017E
:101C40004F5F5F4F60E0862F0E944A0342E0BE0173
:101C50006E5E7F4FC6010E948413BC01CE010196C7
:101C60000E94F71C84E393E09F938F93FF92EF927F
:101C70001F930F930E94FE1CAE014F5F5F4F61E008
:101C800080E00E944A038BE0F60183872DB73EB7C0
:101C9000245F3F4F98C28CE393E09F938F938AE138
:101CA00093E09F938F93CE0105969F938F930E940D
:101CB000FE1CAE014F5F5F4F60E0862F0E944A031B
:101CC000F6018685978568EE73E00E94432064E6FE
:101CD00070E00E9443207F936F938685978568EE1E
:101CE00073E00E9443207F936F9388E493E09F9377
:101CF0008F937E010894E11CF11CFF92EF920E94E9
:101D0000FE1CF601838999279F938F9394A583895D
:101D1000989FC001112464E670E00E9457206AE099
:101D200070E00E9457207F936F9394A58389989FBA
:101D3000C001112464E670E00E9457207F936F93E6
:101D400081E593E09F938F938E010E5E1F4F1F934B
:101D50000F930E94FE1C1F930F938DE593E09F93BA
:101D60008F93CE0107969F938F930E94FE1CA7012D
:101D700061E080E00E944A038DE0F60183872DB781
:101D80003EB7225E3F4F1FC282E693E09F938F9340
:101D90008AE193E09F938F938E010B5F1F4F1F93F8
:101DA0000F930E94FE1CAE014F5F5F4F60E0862FD5
:101DB0000E944A0342E0BE016E5E7F4FC6010E9450
:101DC0008413BC01CE0101960E94F71CF6018089A4
:101DD00091899F938F938CE693E09F938F931F93AA
:101DE0000F930E94FE1CAE014F5F5F4F61E080E0E9
:101DF0000E944A0386E048CF81E793E09F938F9348
:101E000087E793E09F938F938E010B5F1F4F1F9384
:101E10000F930E94FE1CF6018489992787709070A9
:101E20009F938F938BE793E09F938F93CE0142967E
:101E30009F938F930E94FE1CAE014F5F5F4F60E047
:101E4000862F0E944A03F60184892DB73EB7245F8E
:101E50003F4F0FB6F8943EBF0FBE2DBF282F33273C
:101E600087FF24C0BE016F5F7F4F85E042E853E0EB
:101E7000DB01FA0101900D928A95E1F726FF04C07B
:101E800086E027E833E003C086E02DE833E0D801A0
:101E9000F90101900D928A95E1F786E0E3E9F3E01C
:101EA000DB0101900D928A95E1F720C083E498E46C
:101EB000A7E4B0E089839A83AB83BC83DE011496E8
:101EC00026FF04C086E0E7E8F3E003C086E0EDE823
:101ED000F3E001900D928A95E1F787E0A9E9B3E07C
:101EE000FE0131960D9001928A95E1F7AE014F5FA8
:101EF0005F4F61E080E00E944A0388E0F60183873B
:101F0000E5C1F601818587FF67C08F7B818733E854
:101F1000E32EF12CEC0CFD1CD7019C9197FF11C016
:101F2000E95AFF4F9081923019F488E0808340C0D5
:101F30009630D9F5F601438562E0C6010E94DF03C1
:101F400037C0903491F5F6018385883051F527E547
:101F500030E0C20ED31ED6018C91E9EAFFEFCE0E1F
:101F6000DF1E8730F1F4F6018681813021F482E0B2
:101F7000868317821DC0F601978128E430E0C20EE7
:101F8000D31ED6018C91E8EBFFEFCE0EDF1E981723
:101F900020F49F5FF60197830BC081E0F6018683F2
:101FA00007C0F6018185806402C08064F6018187E4
:101FB000860103571F4FD8016C91C7010E9442064A
:101FC000F8018083F601918596FF06C086818130F5
:101FD00019F09F7B91877DC1860103571F4FD80160
:101FE0006C91C6018D579F4F0E942E06F801808389
:101FF000F6012185206C2187868199278130910502
:1020000021F0029709F4E5C064C125FD11C0F60175
:102010008285DE011196833021F485E0E5E0F3E06E
:1020200003C085E0EAE0F3E001900D928A95E1F7C4
:102030009601295A3F4FD9018C918330D9F4F6018A
:10204000818585FF09C085E0A0EAB3E0FE013196F5
:102050000D9001928A95E1F7F6018185982F92956E
:1020600096959770909591709295990F907E8F7D2F
:10207000892B8187D9018C918430D9F4F60181852F
:1020800085FF09C085E0A5EAB3E0FE0131960D9019
:1020900001928A95E1F7F6018185982F92959695A0
:1020A0009770909591709295990F907E8F7D892B66
:1020B00081878E010E5E1F4F41E0B801C6010E946C
:1020C0008413BC01CE0105960E94F71C45E0B801BF
:1020D000C6010E9484139F938F9387E793E09F9399
:1020E0008F932AE0E22EF12CEC0EFD1EFF92EF9270
:1020F0000E94FE1CAE014F5F5F4F60E0862F0E9482
:102100004A03F60183852DB73EB72A5F3F4F0FB6CE
:10211000F8943EBF0FBE2DBF8A3029F481E495E7C5
:10212000A4E7B0E024C08B3029F483E498E4A7E46A
:10213000B0E01DC08D3029F486E492E5ADE4B0E056
:1021400016C0863029F484E493E5A3E4B0E00FC020
:10215000883089F4F601848987FF05C084E49EE312
:10216000A3E4B0E004C083E49EE3A4E4B0E0898388
:102170009A83AB83BC834BE0B801C6010E948413F1
:10218000BC01CE0104960E94F71C4DE0B801C601C7
:102190000E9484139F938F938AEA93E09F938F9377
:1021A000FF92EF920E94FE1CAE014F5F5F4F61E015
:1021B00080E00E944A03F60181858F7B81872DB7DD
:1021C0003EB72A5F3F4F0FB6F8943EBF0FBE2DBFFC
:1021D00080C0F6018781992701969F938F939EEA8D
:1021E000892E93E0992E9F928F925E010894A11CF4
:1021F000B11CBF92AF920E94FE1CF60184892DB7DC
:102200003EB72A5F3F4F0FB6F8943EBF0FBE2DBFBB
:10221000DE01139687FF04C085E0E2E8F3E003C027
:1022200085E0E2EBF3E001900D928A95E1F782E11F
:10223000E82EF12CEC0EFD1E42E1B701C6010E9412
:1022400084138E01095F1F4FBC01C8010E94F71C57
:10225000AE014F5F5F4F60E0862F0E944A03F60198
:102260008781992701969F938F939F928F92BF9218
:10227000AF920E94FE1CF60184892DB73EB72A5FFB
:102280003F4F0FB6F8943EBF0FBE2DBFDE01139631
:1022900087FF04C085E0E2EBF3E003C085E0E2E8FD
:1022A000F3E001900D928A95E1F742E1B701C60192
:1022B0000E948413BC01C8010E94F71CAE014F5F4D
:1022C0005F4F61E080E00E944A03F60181858260F1
:1022D0008187A2960FB6F894DEBF0FBECDBFDF9107
:1022E000CF911F910F91FF90EF90DF90CF90BF9013
:1022F000AF909F908F900895CF92DF92EF92FF92D0
:102300000F931F93CF93DF93CDB7DEB7A2970FB68E
:10231000F894DEBF0FBECDBF7C018091B7038983E7
:1023200090E1FE013296292F11922A95E9F78A8BC6
:10233000FE01739611929A95E9F7F7018581992725
:102340008230910521F0039709F4EEC0CEC1F70168
:10235000818587FF0EC062E0C7010E94E81AF7017D
:10236000918596FF06C08781882319F49F7B91870A
:10237000BCC1F70187819185882311F09F7B02C042
:102380009064F7019187F701818580688187628574
:10239000653009F0AAC16E010894C11CD11CE8EC9B
:1023A000F3E0D601262F01900D922A95E1F7C7019F
:1023B0008C960E944E1AF7018681992781309105EB
:1023C00021F0029709F474C090C18DEC93E09F93C3
:1023D0008F9384ED93E09F938F93CE0105969F9307
:1023E0008F930E94FE1CA60160E0862F0E944A0384
:1023F000F7018685978568EE73E00E94432064E6C6
:1024000070E00E9443207F936F938685978568EEE6
:1024100073E00E9443207F936F9389ED93E09F9335
:102420008F93DF92CF920E94FE1CF7018389992738
:102430009F938F9394A58389989FC001112464E68C
:1024400070E00E9457206AE070E00E9457207F935E
:102450006F9394A58389989FC001112464E670E06E
:102460000E9457207F936F9382EE93E09F938F9308
:102470008E010E5E1F4F1F930F930E94FE1C1F9331
:102480000F938EEE93E09F938F93CE0107969F93C9
:102490008F930E94FE1CA60161E080E00E944A0327
:1024A0008DE0F70183872DB73EB7225E3F4F18C1FD
:1024B00083EF93E09F938F9384ED93E09F938F93AB
:1024C0008E010B5F1F4F1F930F930E94FE1CA601EE
:1024D00060E0862F0E944A0342E0BE016E5E7F4F9D
:1024E000C7010E948413BC01C6010E94F71CF701BA
:1024F000808991899F938F938DEF93E09F938F9322
:102500001F930F930E94FE1CA60161E080E00E94D1
:102510004A0386E0F70183878185826081872DB732
:102520003EB7245F3F4FDCC0F701818587FF23C0A2
:1025300093E8C92ED12CCE0CDF1CD6018C9187FFDD
:1025400010C0E95AFF4F8081823019F488E08083FF
:1025500008C0863031F4F701438562E0C7010E946C
:10256000DF03870103571F4FD8016C91C6010E94FA
:102570004206F8018083F70191859F7B90689187DF
:102580008681813009F0B1C095FD17C083899927F4
:102590009F938F9382E094E09F938F93CE01019657
:1025A0009F938F930E94FE1C2DB73EB72A5F3F4F2B
:1025B0000FB6F8943EBF0FBE2DBF87E590E0E80E42
:1025C000F91ED7018C91E9EAFFEFEE0EFF1E843071
:1025D000D9F4F701818585FF09C085E0A9E0B4E061
:1025E000FE0131960D9001928A95E1F7F701818500
:1025F000982F929596959770909591709295990FC6
:10260000907E8F7D892B81878E010E5E1F4F41E06A
:10261000B801C7010E948413BC01CE0105960E9437
:10262000F71C45E0B801C7010E9484139F938F9364
:102630008EE094E09F938F938AE0C82ED12CCC0E2D
:10264000DD1EDF92CF920E94FE1CAE014F5F5F4FF6
:1026500060E0862F0E944A03F70183852DB73EB7BD
:102660002A5F3F4F0FB6F8943EBF0FBE2DBF8B3091
:1026700029F483E498E4A7E4B0E006C0863041F48E
:1026800084E493E5A3E4B0E089839A83AB83BC83BD
:102690004BE0B801C7010E948413BC01CE0104962F
:1026A0000E94F71C4DE0B801C7010E9484139F935C
:1026B0008F9382E194E09F938F93DF92CF920E9459
:1026C000FE1CAE014F5F5F4F61E080E00E944A0355
:1026D000F7018185826081872DB73EB72A5F3F4F22
:1026E0000FB6F8943EBF0FBE2DBFA2960FB6F8945A
:1026F000DEBF0FBECDBFDF91CF911F910F91FF9035
:10270000EF90DF90CF900895BF92CF92DF92EF923B
:10271000FF920F931F93CF93DF93EC018B01842FD4
:10272000BB249927AA27BB27FC013197E431F10587
:1027300008F04EC3E65DFF4FEE0FFF1F0590F491CA
:10274000E02D09948C859D858436910528F49F930E
:102750008F9386E194E00CC153E0883E950708F022
:1027600044C064E670E00E9443206AE070E00E948A
:1027700043207F936F938C859D8564E670E00E9473
:1027800043207F936F938DE194E09F938F931F93EA
:102790000F930E94FE1C8DB79EB708969DC1FE0147
:1027A000E75BFF4F808191818436910528F49F93E8
:1027B0008F9386E194E02BC023E0883E9207A8F433
:1027C00064E670E00E9443206AE070E00E944320CB
:1027D0007F936F938081918164E670E00E94432033
:1027E0007F936F938DE194E030C085E0E4E2F4E004
:1027F000D80101900D928A95E1F7EAC28C859D85FA
:102800008A30910570F49F938F9389E294E09F93AF
:102810008F931F930F930E94FE1CEDB7FEB7369661
:1028200065C28932910508F0D3C26AE070E00E9467
:1028300043209F938F938C859D856AE070E00E9472
:1028400043207F936F938FE294E09F938F931F9326
:102850000F930E94FE1C4DB75EB7485F5F4FB3C237
:102860008CA5282F33278A8999270196289FD00184
:10287000299FB00D389FB00D11248B89992701969F
:10288000A89FF001A99FF00DB89FF00D1124CF0172
:10289000F98BE88B64E670E00E9443206AE070E008
:1028A0000E9443207F936F938889998964E670E042
:1028B0000E9443207F936F9386E394E09F938F93CE
:1028C0001F930F930E94FE1C4DB75EB7485F5F4F8A
:1028D0000FB6F8945EBF0FBE4DBF8A898823C9F03A
:1028E000992701969F938F938FE394E09F938F9303
:1028F000F80101900020E9F73197FF93EF930E94D0
:10290000FE1C8DB79EB706960FB6F8949EBF0FBEFD
:102910008DBF8B89992701969F938F9384E494E0D0
:102920009F938F93F80101900020E9F73197FF936F
:10293000EF93E2C0FE01E55BFF4F8081918164E689
:1029400070E00E9443209F938F938081918164E681
:1029500070E00E9443207F936F9389E494E0BDC1AF
:10296000C25BDF4F888199279F938F9384E594E022
:102970009F938F931F930F930E94FE1C4DB75EB7DA
:102980004A5F5F4F20C2C05BDF4F888199819F9370
:102990008F9384E594E097C0FE01EE5AFF4F80814B
:1029A00091816CE370E00E9443209F938F9380811C
:1029B00091816CE370E00E9443207F936F938AE5DE
:1029C00094E09F938F931F930F930E94FE1CADB7CB
:1029D000BEB7189696C08E899927845D9E4F6AE08F
:1029E00070E00E9457209F938F938E899927845D72
:1029F0009E4F6AE070E00E9457207F936F938D890D
:102A000024EA31E0F901E81BF109CF016AE070E046
:102A10000E9457209F938F938D89281B3109C901EC
:102A20006AE070E00E9457207F936F9385E694E000
:102A3000C0C18D8924EA31E0D901A81BB109CD01BB
:102A40006AE070E00E9457209F938F938D89281B26
:102A50003109C9016AE070E00E9457207F936F93AB
:102A60008E899927845D9E4F6AE070E00E9457200E
:102A70009F938F938E899927845D9E4F6AE070E0C3
:102A80000E9457207F936F938AE794E09F938F93E0
:102A90001F930F930E94FE1CEDB7FEB73C9626C114
:102AA0008A89282F33272F5F3F4F8B8999270196DB
:102AB000289FA001299F500D389F500D11245F932E
:102AC0004F938FE894E09F938F931F930F930E94EF
:102AD000FE1C8DB79EB706960FB6F8949EBF0FBE2C
:102AE0008DBF76C18E859F859F938F9384E994E0F7
:102AF0009F938F937F936F930E94FE1CADB7BEB7D9
:102B000016960FB6F894BEBF0FBEADBF61C13BE4D1
:102B1000E32EF12CEC0EFD1E8CA56AE00E943720FE
:102B2000282F3327F70180819181B9010E9443202A
:102B3000672B09F44DC18FEF90E09F938F938BE942
:102B400094E09F938F931F930F930E94FE1C4DB7A9
:102B50005EB74A5F5F4F0FB6F8945EBF0FBE4DBFC2
:102B6000B394EB2DFF278CA56AE00E943720282F15
:102B70003327D7018D919C91B9010E944320E6171C
:102B8000F707C8F225C124E5E22EF12CEC0EFD1E5C
:102B9000F7018081282F3327CB5ADF4F8881281BEC
:102BA0003109C9016AE070E00E9457201616170625
:102BB0000CF00EC18FEF90E09F938F938BE994E020
:102BC0009F938F931F930F930E94FE1C4DB75EB788
:102BD0004A5F5F4F0FB6F8945EBF0FBE4DBFB39410
:102BE000EB2DFF27D7018C9199272881821B910912
:102BF0006AE070E00E945720E617F707DCF2E8C0B1
:102C0000FE01E55BFF4F8CA56AE00E943720282F6C
:102C1000332780819181B9010E9443206AE070E0EE
:102C20000E9443207F936F938CA56AE00E94372017
:102C3000282F332780819181B9010E9443207F93FF
:102C40006F938EE994E049C0CC5ADF4F8991482FA9
:102C500055278881481B51094A3051051CF481E4ED
:102C600090E017C0443151051CF482E490E00BC0A1
:102C70004E3151051CF483E490E00BC048325105FD
:102C800034F484E490E0F80191838083A1C085E46A
:102C900090E0D8018D939C939BC08F81E82FFF27F4
:102CA000EE0FFF1FEE0FFF1FEC0FFD1F818D928DAA
:102CB0009F938F938F81E82FFF27EE0FFF1FEE0F5B
:102CC000FF1FEC0FFD1F8789908D6CE370E00E9461
:102CD00043207F936F9385EA94E09F938F931F9394
:102CE0000F930E94FE1CEDB7FEB738960FB6F8940E
:102CF000FEBF0FBEEDBF6CC06B01CA58DF4F7B013A
:102D000088818823F9F062E30E943720892F992770
:102D10009F938F9388810E94372099279F938F9349
:102D20008EEA94E09F938F93FF92EF920E94FE1C95
:102D30004DB75EB7485F5F4F0FB6F8945EBF0FBEEA
:102D40004DBF08C085E0E6EBF4E0D60101900D929E
:102D50008A95E1F7B3942196E4E0F0E0EE0EFF1ED1
:102D6000CE0EDF1EF2E0FB1558F632C0FE01EB5A24
:102D7000FF4F808164E60E943720892F99279F9317
:102D80008F9380810E94372099279F938F93FE0114
:102D9000EC5AFF4F80810E943720892F99279F93FB
:102DA0008F9380810E94372099279F938F938BEB7D
:102DB00094E09F938F931F930F930E94FE1C4DB737
:102DC0005EB7445F5F4F0FB6F8945EBF0FBE4DBF56
:102DD000C801DF91CF911F910F91FF90EF90DF908D
:102DE000CF90BF9008950895089580912A0799275C
:102DF0008830910509F474C089309105CCF4843091
:102E0000910509F44FC08530910554F48230910545
:102E100099F1833091050CF03CC0019721F10895A0
:102E20008630910509F44AC007970CF050C043C0A2
:102E30008C30910509F478C08D30910544F48A30C6
:102E4000910509F45FC00B970CF065C052C08E303D
:102E5000910509F47BC08E3091050CF46EC00F977C
:102E600009F47DC0089542ED54E060E085E00E94E1
:102E70004A034AED54E008C04BEE54E060E085E0C0
:102E80000E944A034BEF54E061E080E00E944A0355
:102E900008954CE055E060E085E00E944A0346E179
:102EA00055E0F2CF45E255E060E085E00E944A033C
:102EB00042E355E0E9CF43E455E002C044E555E084
:102EC00060E085E00E944A0345E655E0DDCF46E735
:102ED00055E060E085E00E944A0346E855E0D4CF23
:102EE00048E955E060E085E00E944A0346EA55E083
:102EF000CBCF48EB55E060E085E00E944A0345EC0B
:102F000055E0C2CF46ED55E060E085E00E944A03FF
:102F100047EE55E0B9CF47EF55E060E085E00E940D
:102F20004A0347E056E0B0CF48E156E060E085E074
:102F30000E944A0349E256E0A7CF4AE356E060E028
:102F400085E00E944A034BE456E09ECF4CE556E0F4
:102F500060E085E00E944A034CE656E095CF4CE7DE
:102F600056E060E085E00E944A034DE856E08CCFD1
:102F70004EE956E060E0862F0E944A034EEA56E092
:102F800061E080E00E944A034EEB56E060E0862F4D
:102F90000E944A0381E090E00895CF92DF92EF9281
:102FA000FF920F931F93CF93DF93EC017B018A0174
:102FB00042E0B8010E948413BC01C7010E94F71CC3
:102FC00044E0B801CE010E9484139F938F938DEC4F
:102FD000C82E86E0D82EDF92CF9287010C5F1F4F5C
:102FE0001F930F930E94FE1C2DB73EB72A5F3F4FE1
:102FF0000FB6F8943EBF0FBE2DBF2F81222309F4D8
:10300000E6C09985892F8295869587708095817015
:103010008295880F807E9F79982B998795FFD7C0DE
:1030200033272130310529F02230310509F44AC017
:10303000CEC09B7F998782ED96E09F938F9384ED1E
:1030400096E09F938F93FF92EF920E94FE1C8985DA
:103050002DB73EB72A5F3F4F0FB6F8943EBF0FBE65
:103060002DBF83FF16C0877F89878C859D85843619
:10307000910510F4019623C033E0883E930710F4C5
:103080000A961DC0885E934009F0A1C01D861C866B
:103090009EC084FF9CC08F7E89878C859D8500970C
:1030A00019F488EE93E00BC033E0893E930710F4E7
:1030B0000A9705C08436910508F089C001979D875D
:1030C0008C8785C09460998782ED96E09F938F935B
:1030D000DF92CF921F930F930E94FE1C89852DB71C
:1030E0003EB72A5F3F4F0FB6F8943EBF0FBE2DBFCD
:1030F000282F287083FF32C0877F89879A89992378
:1031000031F48B898B3039F581E08A8B5FC0913047
:1031100021F48B898530F9F443C0923021F48B89F6
:103120008330C9F406C0933039F48B89823099F426
:1031300084E08A8B81E04AC0943029F49B899130E5
:1031400051F485E01DC0953031F48B89813019F43C
:103150001A8A1B8A3CC08B898F5F38C084FF37C0B6
:103160008F7E89879A89992329F48B89882361F531
:1031700085E0DFCF953031F49B89913029F584E0EB
:103180008A8B25C0943039F48B898130E9F483E04F
:103190008A8B82E01BC0933039F48B898130A1F493
:1031A00082E08A8B9B8B13C0923031F48B89813003
:1031B00059F48A8B85E00AC0913031F48B898130D3
:1031C00019F42A8B8BE002C08B8981508B8BDF91A5
:1031D000CF911F910F91FF90EF90DF90CF900895C6
:1031E000CF92DF92EF92FF920F931F93CF93DF93D3
:1031F000EC017B018A014CE0B8010E948413BC0100
:10320000C7010E94F71C43E0B801CE010E9484135D
:103210009F938F9308ED16E01F930F9398E0C92EAC
:10322000D12CCE0CDF1CDF92CF920E94FE1C2DB75A
:103230003EB72A5F3F4F0FB6F8943EBF0FBE2DBF7B
:103240002F81222309F466C09985892F829586955E
:103250008770809581708295880F807E9F79982BEA
:10326000998795FF57C033272130310521F022304F
:10327000310549F14FC09B7F998782ED96E09F937E
:103280008F931F930F93FF92EF920E94FE1C8985EC
:103290002DB73EB72A5F3F4F0FB6F8943EBF0FBE23
:1032A0002DBF83FF06C0877F89878E859F85019606
:1032B00007C084FF2FC08F7E89878E859F850197E9
:1032C0009F878E8727C09460998782ED96E09F93B1
:1032D0008F931F930F93DF92CF920E94FE1C8985DC
:1032E0002DB73EB72A5F3F4F0FB6F8943EBF0FBED3
:1032F0002DBF83FF06C0877F89878C859D850196BA
:1033000007C084FF07C08F7E89878C859D850197C4
:103310009D878C87DF91CF911F910F91FF90EF9048
:10332000DF90CF900895FC01818583FF14C0877FD3
:1033300081878489862339F08689883711F08F5FE9
:1033400015C0168A08958589882311F0815001C01F
:1033500088E7858B089584FF13C08F7E81879489C9
:10336000962341F08689882319F08150868B089531
:1033700088E7FCCF8589883711F08F5FEACF958B7E
:103380000895CF93DF93EC01FB012F81222309F4F1
:1033900082C09985892F82958695877080958170E6
:1033A0008295880F807E9F79982B998795FF73C0AF
:1033B000332722303105A9F12330310524F421309F
:1033C000310549F068C023303105D9F12430310589
:1033D00009F446C060C09B7F998780E290E09387A4
:1033E0008287898583FF0DC0877F89872C89822FFB
:1033F000992787709070049714F42F5F10C0287F6E
:103400000EC084FF48C08F7E89872C89822F992720
:1034100087709070892B11F0215001C024602C8B93
:103420003AC080E290E0918380839287818799857A
:10343000892F887181F1977E99878C8980588C8B30
:103440002AC082ED96E09F938F938CED96E09F9338
:103450008F933296FF93EF930E94FE1C60E810C09A
:103460009460998782ED96E09F938F938CED96E020
:103470009F938F933B96FF93EF930E94FE1C60E017
:10348000CE010E9493198DB79EB706960FB6F89499
:103490009EBF0FBE8DBFDF91CF910895FC01862F97
:1034A00099278230910521F1833091052CF4009702
:1034B00061F0019791F008958430910541F18430D5
:1034C0009105FCF0059759F1089589EB808382ED11
:1034D000818380EC828386E907C084EB80838DEC56
:1034E00081838BEB82838DE7838385E084830895DA
:1034F00095EA908384EB8183928384E6838384E1DD
:10350000F5CF8CE380831182128282E305C08CE3C5
:103510008083118212828AE283838AE0E7CF84E685
:1035200080838BE78183128287E5838382E0DECF0D
:1035300020E0FC01EA58FF4F9BE0819181112F5F51
:10354000915097FFFACF822F99270895CF93FC01CE
:10355000C0E092898389989F902D1124413161F4B4
:10356000C917B8F427A5EA58FF4F8191821788F050
:10357000CF5FC917D0F30DC0423129F5C91748F400
:1035800025A5EA58FF4F8191281718F0CF5FC9177A
:10359000D0F3C91719F480E090E018C08C2F992758
:1035A00001969F938F9380EE96E09F938F937F93E6
:1035B0006F930E94FE1C8DB79EB706960FB6F894C7
:1035C0009EBF0FBE8DBFCF5F8C2F9927CF910895DF
:1035D000EF92FF920F931F93CF93DF93EC01362F5F
:1035E0002985922F9F7B998783E8E82EF12CEC0E9A
:1035F000FD1EF7016081603819F44C8161E03AC02A
:10360000613119F440E063E035C0613099F48B8595
:10361000813011F082E08B8740E063E0CE010E94B0
:10362000DF03898582FD04C08F818F5F8F8328C06F
:103630001F8226C0603481F48F81882311F0986046
:103640001EC0622F627021FD04C08E818F5F482FE3
:1036500011C041E062E00EC0623081F48F818823A6
:1036600011F090610CC04E81413019F04150682F2B
:1036700001C0432FCE010E94DF0302C090649987EE
:103680008E0103571F4FF8016081C7010E94420657
:10369000F8018083DF91CF911F910F91FF90EF9000
:1036A00008958F929F92AF92BF92CF92DF92EF9246
:1036B000FF920F931F93CF93DF93CDB7DEB7A297FF
:1036C0000FB6F894DEBF0FBECDBF5C018091E5065A
:1036D000898390E1FE013296292F11922A95E9F70C
:1036E0008A8BFE01739611929A95E9F7F50185810F
:1036F00099278130910521F0029709F47CC064C1BB
:10370000F501818587FF0BC061E0C5010E94E81AC1
:10371000F501818586FF03C08F7B818755C18501B7
:1037200003571F4FD8016C91C5018D579F4F0E94C1
:103730002E06F8018083F5018185806C81877E01EA
:103740000894E11CF11C89E0E6EFF6E0D701019056
:103750000D928A95E1F78501075A1F4FF801808184
:1037600091819F938F938FEF96E09F938F9352E178
:10377000C52ED12CCC0EDD1EDF92CF920E94FE1CF6
:10378000D8018D919C919F938F9385E097E09F93B3
:103790008F93CE014A969F938F930E94FE1CA701A0
:1037A00060E0862F0E944A0342E0B601C5010E94F4
:1037B0008413BC01C7010E94F71CF501808991891F
:1037C0009F938F938CE097E09F938F93CE01059604
:1037D0009F938F930E94FE1CA70161E080E00E94EE
:1037E0004A032DB73EB72E5E3F4F0FB6F8943EBF4B
:1037F0000FBE2DBFE9C0F501818587FF22C043E8D8
:10380000E42EF12CEA0CFB1CD7018C9187FF0FC032
:10381000E95AFF4F8081823019F488E0808307C025
:10382000863029F441E0642FC5010E94DF03850141
:1038300003571F4FF8016081C7010E944206D8015B
:103840008C93F501818585FD09C085E0A1E1B7E094
:10385000FE0131960D9001928A95E1F732E5832EB3
:10386000912C8A0C9B1CD4018D919C916CE370E08F
:103870000E944320E9E5F0E0AE0EBF1ED5018D9118
:103880009C91E7EAFFEFAE0EBF1E86179707C9F4BB
:1038900027E530E0A20EB31E88E0D5018C93E9EA5B
:1038A000FFEFAE0EBF1EF5019185892F829586959B
:1038B0008770809581708295880F807E9F7D982B80
:1038C00091878E010E5E1F4F41E0B801C5010E9435
:1038D000841325E0C22ED12CCC0EDD1EBC01C60106
:1038E0000E94F71C45E0B801C5010E9484139F9314
:1038F0008F9386E197E09F938F93CE010A969F93D3
:103900008F930E94FE1CAE014F5F5F4F60E0862FD9
:103910000E944A037E010894E11CF11C85E0EAE163
:10392000F7E0D70101900D928A95E1F74DE0B801DB
:10393000C5010E948413BC01C6010E94F71CF50159
:10394000E35AFF4F2BE530E0A20EB31E20813181F8
:10395000D5018D919C91E5EAFFEFAE0EBF1E289F29
:10396000A001299F500D389F500D1124CA0164E613
:1039700070E00E9443207F936F938FE197E09F93C5
:103980008F93CE010B969F938F930E94FE1CA701ED
:1039900061E080E00E944A03D4018D919C911197CF
:1039A00001968D939C93EDB7FEB73C960FB6F894B5
:1039B000FEBF0FBEEDBF019739F427E530E0A20E40
:1039C000B31E81E0D5018C93A2960FB6F894DEBFAA
:1039D0000FBECDBFDF91CF911F910F91FF90EF9060
:1039E000DF90CF90BF90AF909F908F900895FB0194
:1039F000DC0101900D920020E1F708950F931F93D1
:103A0000CF93DF93CDB7DEB72E970FB6F894DEBF16
:103A10000FBECDBF0D891E892F89388D86E08C831E
:103A20001A8309838FEF9FE79E838D83AE01475EE4
:103A30005F4FB901CE0101960E942E1DEF81F885DE
:103A4000E00FF11F10822E960FB6F894DEBF0FBE66
:103A5000CDBFDF91CF911F910F9108952F923F928B
:103A60004F925F926F927F928F929F92AF92BF928E
:103A7000CF92DF92EF92FF920F931F93CF93DF933A
:103A8000CDB7DEB762970FB6F894DEBF0FBECDBFDD
:103A9000EE24FF2487011C017E876D872A01CC2438
:103AA000DD24FC01D782C682838181FD68C28FEF4D
:103AB0009FEF78C28D859E8501969E878D87C0FE7B
:103AC0004BC28F8580538A30D0F49F85903339F470
:103AD000662029F4C3FC03C0E0E0F1E08DC08AE079
:103AE000689E602C1124FF856F0E20ED620E67FE2C
:103AF00002C05FE7652EC3FC42C2762C40C2C3FE03
:103B000004C0662011F441E0642EEF858E2F9927C2
:103B100087FD9095883691058CF5853691050CF0DA
:103B20006EC08335910509F493C084359105CCF4BA
:103B30008B32910509F449C08C3291054CF48032E6
:103B4000910509F446C08332910509F44AC0FEC1CB
:103B50008D32910509F440C08E32910509F444C0BC
:103B6000F5C18336910509F450C0843691050CF0F7
:103B70008AC08835910509F4BCC0E8C18037910539
:103B800009F4B1C08137910584F48C36910591F127
:103B90008D3691052CF48936910509F474C0D6C18F
:103BA0008F36910509F49CC0D1C18537910509F480
:103BB000A2C08637910524F48337910571F1C6C1FF
:103BC0008837910509F495C0C1C180E190E0C82A09
:103BD000D92AE0E2F0E010C080E890E0C82AD92AB3
:103BE000CEC1E0E4F0E008C088E090E0C82AD92A1D
:103BF0006624C5C1E4E0F0E0CE2ADF2AC0C13FE37D
:103C0000E32E7A94F3E6FF873CC1F20182E090E074
:103C1000480E591EE0807A9434C1F20182E090E0AF
:103C2000480E591EA081B1817D01C3FE09C0862DB9
:103C3000992787FD9095BC01CD010E94FF1F1FC0F1
:103C4000FD0101900020E9F73197EA1BE88B18C0CD
:103C5000F20182E090E0480E591E0190F081E02DC3
:103C60007F01C3FE09C0862D992787FD9095BC0171
:103C7000CF010E94F41F03C0CF010E94EB1F888B6D
:103C80009889791AFEC0C2FE0AC0F20184E090E071
:103C9000480E591E20813181428153810CC0F201AE
:103CA00082E090E0480E591E808191819C0144275A
:103CB00037FD4095542F79018A0157FF0CC0E2E08F
:103CC000F0E0CE2ADF2A10950095F094E094E11CF4
:103CD000F11C011D111D8FEB9FEFC822D92227C0B7
:103CE00098E0988B08C0E0E4F0E0CE2ADF2AF8E7FD
:103CF000FF8720E1288BC2FE0AC0F20184E090E039
:103D0000480E591E20813181428153810AC0F2013F
:103D100082E090E0480E591E808191819C014427E9
:103D2000552779018A01EFECFFEFCE22DF22CE0189
:103D300001969A8B898B9889892E9924AA24BB2471
:103D4000C801B701A50194010E946A20DC01CB01E2
:103D5000E989FA8980838A3024F0FF858F0F8152A8
:103D600001C0805DE989FA898193FA8BE98BC801EA
:103D7000B701A50194010E946A2079018A012115E9
:103D8000310541055105E1F6E98881E090E08C0FAD
:103D90009D1FE81AC60182739070892B09F07A94EE
:103DA000C6FE0DC0872D992787FD9095E889E031E3
:103DB00021F42EEF722E780E02C0782E7A94C3FE74
:103DC0000FC0262D332727FD30958E2D992782177A
:103DD00093072CF087EF9FEFC822D92201C06E18FD
:103DE000C3FE02C0761801C07E18C60180789170AB
:103DF000892B51F4872D7A94181634F4B10180E29E
:103E000090E00E940A20F6CFC1FE04C0B1018DE20D
:103E100090E00BC0C4FE04C0B1018BE290E005C08D
:103E2000C5FE05C0B10180E290E00E940A20C6FEF6
:103E300010C0B10180E390E00E940A20988990317F
:103E400041F4B101EF858E2F992787FD90950E944F
:103E50000A20D0FE0AC0872D7A94181634F4B101D6
:103E600080E390E00E940A20F6CFC3FE0AC0862DB0
:103E70006A94181634F4B10180E390E00E940A209D
:103E8000F6CF90E8B92EBC2051F4872D7A941816FD
:103E900034F4B10180E290E00E940A20F6CFFF8561
:103EA000F33641F48E2DB101992787FD90950E943C
:103EB0000A2040C02F852337B1F488898150888B30
:103EC0008F3FC1F1F70180810894E11CF11CB10121
:103ED000992787FD90950E940A2098899150988B88
:103EE0009F3F81F727C0EF85E33579F4F889F150DA
:103EF000F88BFF3FF9F0F7018491B10199270E94F7
:103F00000A200894E11CF11CF1CF6E010894C11C39
:103F1000D11C89899A898C159D0561F0E989FA89F6
:103F20008291FA8BE98BB101992787FD90950E94C8
:103F30000A20EFCFBB2069F0872D7A9418164CF435
:103F4000B10180E290E00E940A20F6CFB1010E9408
:103F50000A20CC24DD2413C09F85953241F481E0F2
:103F6000C82ED12C6624762CEAE0E88B08C0B1017B
:103F7000FF858F2F992787FD90950E940A20F101D8
:103F8000838183FF04C0ED85FE85F49103C0ED8538
:103F9000FE85F081FF872F85222309F08BCDF1016B
:103FA0008681978162960FB6F894DEBF0FBECDBFB3
:103FB000DF91CF911F910F91FF90EF90DF90CF9005
:103FC000BF90AF909F908F907F906F905F904F9039
:103FD0003F902F900895FC0105900020E9F780950F
:103FE00090958E0F9F1F0895FC01059061507040C1
:103FF0000110D8F7809590958E0F9F1F0895FC01B2
:104000006150704001900110D8F7809590958E0F07
:104010009F1F08950F931F93CF93DF938C01EB01A4
:104020008B81992781FF1CC082FF0DC02E813F81AB
:104030008C819D812817390764F4E881F981019307
:10404000F983E88306C0E885F985802F0995892BD7
:1040500039F48E819F8101969F838E83C80102C0AF
:104060008FEF9FEFDF91CF911F910F910895991BD3
:1040700079E004C0991F961708F0961B881F7A955F
:10408000C9F780950895AA1BBB1B51E107C0AA1F61
:10409000BB1FA617B70710F0A61BB70B881F991FE9
:1040A0005A95A9F780959095BC01CD01089597FB8D
:1040B000092E07260AD077FD04D0E5DF06D00020C0
:1040C0001AF4709561957F4F0895F6F79095819554
:1040D0009F4F0895A1E21A2EAA1BBB1BFD010DC024
:1040E000AA1FBB1FEE1FFF1FA217B307E407F507A8
:1040F00020F0A21BB30BE40BF50B661F771F881F84
:10410000991F1A9469F760957095809590959B0119
:08411000AC01BD01CF010895CF
:104118004C69506F20202020436861726765003128
:104128003041202031312E31562833532900536134
:1041380076696E67204E6F2E0052652042617420AA
:1041480053657474696E67004C69506F3036434824
:10415800473031005761697420706C656173652E52
:104168002E2E004D656D6F7279206C696D69740033
:10417800434F4E4649524D28454E54455229004317
:10418800414E43454C2853544F50290042617420F6
:10419800536176696E67204E6F2E0000020A05058E
:1041A8000203034241545445525920545950450082
:1041B8004C69506F2042617474657279004C69498A
:1041C8006F2042617474657279004C6946652042BB
:1041D800617474657279004E694D48204261747447
:1041E800657279004E69436420426174746572791E
:1041F80000506220426174746572790042615564AE
:1042080020426174746572790050524F4752414D93
:104218002053455454494E4700416476616E6365A6
:10422800642053657474696E6700526573756D65B3
:104238002044656661756C7400426174205365742E
:1042480020616E642053617665004C6F6164204282
:1042580061747465727920536574005359535445D9
:104268004D20434845434B00504C4541534520574A
:104278004149542E2E2E0056332E30312020202036
:1042880041410031303130420000000000000000A0
:10429800000000000000000000004C69506F004C56
:1042A80069496F004C69466500424154544552596A
:1042B8000025313273004D4541535255454D414E0D
:1042C800004155544F0042414C414E43452043481C
:1042D800470043484152474500464153542043480C
:1042E800470044434847002535730025377300537A
:1042F800544F52414745004359434C4500253673B6
:1043080000253664004D4F4E49544F5200253873EE
:10431800002531367300534F433A25730025732027
:104328004675656C0042414C3A257300523A253077
:1043380032645345522020533A2530326453455253
:1043480000434F4E4649524D2028454E5445522968
:1043580000444F4E45002025730025642E25303239
:1043680064560025643A002564200043484720002D
:1043780043454C4C202573004F7665722044697381
:10438800636861726765004F766572204368617281
:10439800676500426174746572792042616C616E70
:1043A80063656400000000000000000000000000D9
:1043B80000000000004E694D48004E694364004308
:1043C80048415247452041757400253132730043F6
:1043D8005552204C494D49540043484152474520C5
:1043E8004D616E0043555252454E5400464F524D52
:1043F800494E47204348470025642E2564414820FC
:10440800002532642E25642825645329002531307F
:1044180073004449534348415247450025313264AB
:10442800004359434C4500202573002020202025B7
:1044380064004443484700284155542900284D4109
:104448004E29002D3E434847002D3E44434847002F
:104458005741495400444F4E4500253773002564A1
:104468002000434847200000000000000000000032
:104478000000000000000000506220200043484176
:1044880052474500253132730025642E2564414882
:1044980020002532642E25642825645329002531FF
:1044A800307300444953434841524745002531324F
:1044B800640050622530326400444F4E4500202588
:1044C8007300253773002E25303264410025642E91
:1044D800256441003130412000302E2564430025F9
:1044E800642E25644300202532642E256456002856
:1044F800256458002564532900202532642E253070
:104508003264560020253035640020253033643A63
:104518002530326400433A25642E253264562D3EF8
:10452800443A25642E2532645600443A25642E25E3
:104538003264562D3E433A25642E253264560025B2
:10454800303264002564306D4168002563002564BD
:104558002564252500202533642025356400202581
:10456800642E253264002D2D2D2D00483A25642E09
:10457800253032645620204C3A25642E253032648A
:1045880056004C692054797065004C6958582020B1
:10459800202020202020582E5856004C6974686925
:1045A800756D206261747465727900436865636B28
:1045B8002054696D652058586D696E00576169749B
:1045C8002054696D65004348472F444348472058A5
:1045D800586D696E004E694D482F4E6943642F50DF
:1045E8006200547269636B6C65202020205858580B
:1045F8006D41004E694D482053656E736974697644
:10460800697479004E6943642053656E73697469EF
:10461800766974790044656C7461562058586D56F3
:104628002F43656C6C004E694D682F4E69436420BA
:10463800436865636B0044656C6179202020202005
:10464800202058586D696E0054656D702E20437592
:10465800742D4F66660058585820202020202020AE
:104668002020205858A1E6005361666574792074AB
:10467800696D657200585858202020202020205845
:1046880058586D696E00436170616369747920439D
:1046980075742D4F666600585858202020205858A9
:1046A8005858586D416800496E70757420706F775E
:1046B8006572206C6F77004375742D4F66662020F5
:1046C8002058582E58585600576174742E204C693B
:1046D8006D69742020285729004348473A415554AA
:1046E8004F20444348473A3330004B6579204265B0
:1046F800657020202020205858580042757A7A6525
:10470800722020202020202058585800436F6D70B8
:104718006C6574696F6E2052696E6700202042656F
:1047280065702020203574696D6573004261636B84
:104738002D6C6967687420202058582500436F6FD6
:104748006C696E672066616E20585858580052652B
:1047580073756D652044656661756C743F00434FE1
:104768004E4649524D2820454E5445522900504C3A
:104778004541534520574149542E2E2E00253132AC
:104788007300200025347300253873002535730025
:104798002530326400000000000000000000000026
:1047A800000000000000444320506F776572002528
:1047B800646D696E002538646D696E002531326458
:1047C800004443505300202573004F5554200025C2
:0447D80036645700EC
:00000001FF
